:020000040800F2
:100000000807002089010008BB120008031100083E
:10001000B91200088F0200087315000800000000E4
:10002000000000000000000000000000C1120008F5
:100030009102000800000000BD120008C312000871
:10004000A3010008A3010008A3010008A301000800
:10005000A3010008BF120008A3010008A3010008C3
:10006000A3010008A3010008A3010008A3010008E0
:10007000A3010008A3010008A3010008A3010008D0
:10008000A3010008A3010008A3010008A3010008C0
:10009000A3010008A3010008A3010008A3010008B0
:1000A000A3010008A3010008A3010008A3010008A0
:1000B0002513000831130008A3010008A30100085C
:1000C000A3010008A3010008A3010008A301000880
:1000D000A3010008A3010008A3010008A301000870
:1000E000A3010008A3010008A301000800F002F822
:1000F00000F03AF80AA090E8000C82448344AAF188
:100100000107DA4501D100F02FF8AFF2090EBAE885
:100110000F0013F0010F18BFFB1A43F0010318473B
:100120005417000074170000103A24BF78C878C133
:10013000FAD8520724BF30C830C144BF04680C60ED
:10014000704700000023002400250026103A28BF35
:1001500078C1FBD8520728BF30C148BF0B60704739
:100160001FB51FBD10B510BD00F058F81146FFF7C0
:10017000F7FF01F0C5FA00F076F803B4FFF7F2FFDD
:1001800003BC00F07DF8000009488047094800479B
:10019000FEE7FEE7FEE7FEE7FEE7FEE7FEE7FEE737
:1001A000FEE7FEE704480549054A064B7047000094
:1001B00023130008ED0000080801002008070020B4
:1001C00008030020080300204FF0000200B513468A
:1001D00094469646203922BFA0E80C50A0E80C5067
:1001E000B1F12001BFF4F7AF090728BFA0E80C5018
:1001F00048BF0CC05DF804EB890028BF40F8042B11
:1002000008BF704748BF20F8022B11F0804F18BF7D
:1002100000F8012B7047704770477047754600F033
:100220002BF8AE4605006946534620F00700854688
:1002300018B020B5FFF7B6FFBDE820404FF000062C
:100240004FF000074FF000084FF0000B21F00701BE
:10025000AC46ACE8C009ACE8C009ACE8C009ACE801
:10026000C0098D46704710B50446AFF300802046A4
:10027000BDE81040FFF781BF00487047A80000208C
:1002800001491820ABBEFEE7260002007047FEE7DA
:10029000704772B6FEE700002DE9F84FDFF8B8911D
:1002A0000024A9F1040B23460F2709F1040AABF13E
:1002B000040EC9E00125A5402A40AA427DD1674E1F
:1002C000D1F804C0ACEB0608B44532D014DCBCF164
:1002D000030F3AD009DCBCF1000F2AD0BCF1010FAA
:1002E0001CD0BCF1020F31D11DE0BCF1110F17D0B1
:1002F000BCF1120F2AD119E0B8F5881F19D006DC1D
:10030000B8F5803F15D0B8F5801F1FD111E0B8F5C2
:10031000001F0ED0B8F5041F18D10AE0CB6815E015
:10032000CB681B1D12E0CB6808330FE0CB680C33A1
:100330000CE08B682BB1012B4FF0080303D0456113
:1003400004E0042302E0056100E00023FF2A01D855
:10035000064601E000F104064FEA840501D9A5F143
:100360002005D6F8008007FA05FC28EA0C0803FAF5
:1003700005F548EA0508C6F800804D68ED0062D52D
:10038000374DAE6946F00106AE61AD6924F0030653
:1003900005F001050095334D06EB050CDCF808501F
:1003A000A607360F07FA06F825EA0805DFF8B88031
:1003B000404503D14FF0000817E044E0DFF8AC807F
:1003C000404502D14FF001080FE0DFF8A48040451E
:1003D00002D14FF0020808E0DFF89880404502D1D2
:1003E0004FF0030801E04FF0040808FA06F848EA65
:1003F0000508CCF808804D68D9F80060ED024D463C
:1004000001D5164300E096432E604D68DAF800608F
:10041000AD02554601D5164300E096432E604D6867
:10042000DBF80060AD035D4601D5164300E096435E
:100430002E604D68DEF80060ED03754601D5164369
:1004400000E096432E60641C0D682A46E5407FF468
:1004500031AFBDE8F88F0000080401400000111022
:10046000001002400000014000080140000C014063
:1004700000100140001401408068084000D00120B5
:1004800070470AB1016170470904FBE701488068C1
:10049000704700000800002002488168027811447B
:1004A0008160704708000020074810B5016841F0DE
:1004B00010010160032000F07DF80F2000F006F825
:1004C00000F024F8002010BD0020024070B50D4D52
:1004D00004464FF47A712878B1FBF0F00A490968B4
:1004E000B1FBF0F000F0C4FA48B9102C07D200229A
:1004F0002146501E00F03EF800206C6070BD0120C7
:1005000070BD00000800002014000020104808B54D
:10051000816941F001018161816901F0010100916E
:10052000C16941F08051C161C069002200F0805072
:1005300000901146052000F01DF8052000F00CF891
:100540000448416821F0E06141F00071416008BD5C
:100550000010024000000140002809DB00F01F02EB
:10056000012191404009800000F1E020C0F8001115
:1005700070470000F0B40E4B1B680C46C3F3022317
:10058000C3F10705042D00D90425191D072901D23F
:10059000002300E0DB1E012606FA05F1491E21407A
:1005A00099409E40761E16403143F0BC00F0E2BFF9
:1005B0000CED00E0064900F0070208684FF6FF0363
:1005C000184040EA0220034A1043086070470000C8
:1005D0000CED00E00000FA052DE9F0470F4605009C
:1005E00061D0434E306800F00700B84209D230684D
:1005F00020F0070038433060306800F00700B84250
:1006000051D128683B4C810712D5400703D560685B
:1006100040F4E06060602878000703D5606840F42B
:10062000605060606068A96820F0F0000843606076
:100630002878C00728D06868012810D021680228CF
:1006400010D0890700292EDA616821F003010143E7
:100650006160FFF71BFF804641F288390DE0216899
:100660008903EFE78901EDE7FFF710FFA0EB080131
:10067000494502D90320BDE8F0876068696800F049
:100680000C00B0EB810FEFD1306800F00700B842EA
:100690000BD9306820F0070038433060306800F034
:1006A0000700B84201D00120E5E72878400705D5CA
:1006B0006068E96820F4E06008436060287800071B
:1006C00006D56068296920F4605040EAC100606086
:1006D00000F018F86168084AC1F30311515CC84082
:1006E0000649086006480068FFF7F0FE0020C2E7F0
:1006F0000020024000100240621800081400002090
:100700000C0000200E4A51680E4801F00C03042B27
:1007100011D0082B0FD10C48C1F38343C903C05C2F
:100720000AD55168084AC1F34041921E515C054AFE
:100730005043B0FBF1F07047044948437047000054
:100740000010024000127A005218000800093D0013
:100750002DE9F84F040070D02078C04DC00749D073
:100760006868C0F38100012807D06868C0F3810081
:10077000022809D16868C00306D52868800339D5E6
:1007800060680028E7D035E06068B0F5803F0BD0A6
:1007900010B1B0F5A02F11D0286820F48030286067
:1007A000286820F4802002E0286840F48030286027
:1007B000606890B1FFF76AFE06460AE0286840F4D8
:1007C00080202860F0E700BFFFF760FE801B6428F0
:1007D00073D828688003F7D50CE0FFF757FE06466C
:1007E00005E000BFFFF752FE801B6428F0D82868A0
:1007F0008003F7D420789A4E80074FF001094FF01C
:10080000000839D5686810F00C0F07D06868C0F38D
:100810008100022809D16868C00306D428688007CF
:1008200014D52069012808D110E02069B0B1C6F8BC
:100830000090FFF72BFE074605E00AE1FFF726FED2
:10084000C01B0228C4D828688007F7D528686169CA
:1008500020F0F80040EAC10028600DE0C6F80080F2
:10086000FFF714FE074604E0FFF710FEC01B022846
:1008700023D828688007F7D4207800072CD579483A
:10088000A169D9B1C0F80090FFF700FE074604E067
:10089000FFF7FCFDC01B02280FD8686A8007F7D558
:1008A00071484FF4FA510068B0FBF1F0009000BFBE
:1008B0000098411E0091FAD20EE080E0C0F800805E
:1008C000FFF7E4FD074604E0FFF7E0FDC01B022848
:1008D00075D8686A8007F7D42078400760D5E86942
:1008E0000027C00008D4E86940F08050E861E8695A
:1008F000012700F0805000905C480168C90513D4BE
:100900000168834641F480710160FFF7BFFD8246B4
:1009100006E000BFFFF7BAFDA0EB0A0064284ED83E
:10092000DBF80000C005F5D5E06801280AD008B161
:10093000052813D0286A20F001002862286A20F0D8
:10094000040002E0286A40F001002862E06841F2F9
:10095000883B98B1FFF79AFD82460BE0286A40F089
:1009600004002862EEE700BFFFF790FDA0EB0A014C
:1009700059455AD8286A8007F6D50CE0FFF786FD5E
:10098000824605E0FFF782FDA0EB0A0159454CD8ED
:10099000286A8007F6D41FB1E86920F08050E8612A
:1009A000E06988B36968C1F38101022944D0022853
:1009B000C6F8608004D0FFF769FD044638E034E0F3
:1009C000FFF764FD074604E0FFF760FDC01B022847
:1009D0002BD828688001F7D4206AB0F5803F05D174
:1009E0006868A16820F4003008436860D4E9080111
:1009F0000843696821F4741108436860C6F8609080
:100A0000FFF744FD044606E025E000BFFFF73EFD8A
:100A1000001B022809D828688001F7D51BE000BF19
:100A2000FFF734FD001B022802D90320BDE8F88F30
:100A300028688001F4D40EE00128F7D06868226AA3
:100A400000F48031914204D1616A00F47010884250
:100A500001D00120EAE70020E8E700000010024092
:100A60000000424280044242140000200070004016
:100A700010B5401EB0F1807F01D3012010BD4FF0B2
:100A8000E02460610F21601700F074FD0020A06178
:100A900007202061002010BD7047704770B590F8A6
:100AA0003C20012A26D0012480F83C40022280F814
:100AB0003D2003685A689D6822F070060A68324338
:100AC0005A600D4B02689A4208D0B2F1804F05D0AF
:100AD0000A4B9A4202D00A4B9A4204D1496825F047
:100AE00080031943916080F83D40002180F83C105C
:100AF000084670BD022070BD002C0140000400407B
:100B00000008004010B5040003D094F83D0010B177
:100B100007E0012010BD002084F83C00204600F0D2
:100B20001FF8022084F83D00211D206800F006FC1B
:100B3000012084F8460084F83E0084F83F0084F8E1
:100B4000400084F8410084F8420084F8430084F8AF
:100B5000440084F8450084F83D00002010BD0000EA
:100B600008B501681448B1F1804F14D0134A91427E
:100B700020D1C16941F00201C161C069002200F0C9
:100B80000200009011461D20FFF7F4FC1D20BDE877
:100B90000840FFF7E1BCC16941F00101C161C069D2
:100BA000002200F00100009011461C20FFF7E2FC3B
:100BB0001C20ECE708BD00000010024000040040CB
:100BC00090F83D10012901D001207047022180F8E2
:100BD0003D100168CA6842F00102CA6000680B4912
:100BE000884208D0B0F1804F05D00949884202D030
:100BF0000849884204D1816801F00701062903D021
:100C0000016841F00101016000207047002C0140A3
:100C1000000400400008004070B5044690F83C0015
:100C20000025012817D0012684F83C60022084F8B2
:100C30003D002068826822F0770222F47F428260C1
:100C40000868502838D00DDC20284FD005DC90B340
:100C5000102811D14AE0022070BD302846D040282B
:100C60000AD13BE060282FD070280DD0B0F5805F0E
:100C700003D0B0F5005F12D0012584F83D6000205C
:100C800084F83C00284670BDCB68D1E9012120687A
:100C900000F097FB2068816841F0770109E0CB689C
:100CA000D1E90121206800F08CFB2068816841F4C3
:100CB00080418160E1E719E0CA684968206800F076
:100CC00035FC5021206806E0CA684968206800F0B9
:100CD0003EFC6021206800F07EFBCEE7CA684968D0
:100CE000206800F023FC40212068F4E722680146D8
:100CF0001046F0E7704770B50446006801694FF090
:100D00000005C943890715D4C168C943890711D4AF
:100D1000E91E016101202077206880698007204654
:100D200002D0FFF7E7FF04E000F0C6F8204600F02D
:100D300058F9257720680169C943490717D4C16864
:100D4000C943490713D46FF00401016102202077E1
:100D50002068806910F4407F204602D0FFF7CAFF68
:100D600004E000F0A9F8204600F03BF92577206860
:100D70000169C943090716D4C168C943090712D4D8
:100D80006FF008010161042020772068C0698007A6
:100D9000204602D0FFF7AEFF04E000F08DF82046B9
:100DA00000F01FF9257720680169C943C90617D4E7
:100DB000C168C943C90613D46FF01001016108204E
:100DC00020772068C06910F4407F204602D0FFF7EA
:100DD00091FF04E000F070F8204600F002F925775A
:100DE00020680169C943C90708D1C168C943C90757
:100DF00004D1891E0161204600F042F92068016992
:100E0000C943090609D4C168C943090605D46FF06E
:100E1000800101612046FFF73FFE20680169C94358
:100E2000490609D4C168C943490605D46FF0400199
:100E30000161204600F064F920680169C943890610
:100E40000BD4C168C943890607D46FF02001016142
:100E50002046BDE87040FFF720BE70BD00B585B0EC
:100E6000002100910191029103910068B0F1804F3F
:100E70001AD10E48816941F0080181618069694693
:100E800000F00800049008200090022001900390D8
:100E90000748FFF701FA0748416821F4407141F023
:100EA000E06141F48071416005B000BD0010024076
:100EB000000C014000000140704770B5044690F8F6
:100EC0003C0000260D4601280FD0012084F83C008C
:100ED0006AB1042A1DD0082A2FD00C2A3FD001263F
:100EE000002084F83C00304670BD022070BD2068B0
:100EF00000F07AFA2068816941F008018161206878
:100F0000816921F004018161206881692A691143A6
:100F100011E0206800F090FA2068816941F40061D6
:100F200081612068816921F4806181612068816923
:100F30002A6941EA02218161D2E7206800F0A8FA1B
:100F40002068C16941F00801C1612068C16921F0D0
:100F50000401C1612068C1692A69114311E0206858
:100F600000F0C2FA2068C16941F40061C1612068E3
:100F7000C16921F48061C1612068C1692A6941EABF
:100F80000221C161ACE710B5040003D094F83D0024
:100F900010B107E0012010BD002084F83C0020467D
:100FA00000F01EF8022084F83D00211D206800F0AA
:100FB000C5F9012084F8460084F83E0084F83F001B
:100FC00084F8400084F8410084F8420084F843002B
:100FD00084F8440084F8450084F83D00002010BDEA
:100FE0007047704710B50446022249B104290ED05B
:100FF000082913D094F84100012816D0012010BD13
:1010000094F83E000128F9D184F83E200FE094F8CE
:101010003F000128F2D184F83F2008E094F8400016
:101020000128EBD184F8402001E084F8412001221E
:10103000206800F0B9F90F492068884203D1426C5A
:1010400042F4004242642068884208D0B0F1804FE8
:1010500005D00949884202D00849884204D18168F4
:1010600001F00701062903D0016841F00101016088
:10107000002010BD002C014000040040000800408A
:1010800000681B49884231D11A4A1B480021137855
:1010900043B143885B1C9BB24380B3F57A7F01D197
:1010A0004180117003785B1CDBB20370142B00D1FC
:1010B00001701278002A19D10F4A4378928813B12F
:1010C000012B08D00EE0521D91B28180B1F5FA6F6C
:1010D00008D1012105E0521F92B28280B2F52F7F24
:1010E00000D1417005498088096888637047000015
:1010F0000004004001000020020000201800002031
:101100007047FEE72DE9F04186B00024274800949F
:10111000019402940394816941F020018161816905
:1011200001F020010491816941F00401816181692C
:1011300001F004010491816941F008018161806935
:101140001B4F00F008000490002249F64071384619
:10115000FFF797F9012280213846FFF792F9DFF86F
:101160005480012203214046FFF78BF93F20CDE94F
:101170000004694638460294FFF78EF849F6C070BD
:1011800001250226CDE90005CDE90246694638462B
:10119000FFF782F80320CDE90005CDE90246694654
:1011A0004046FFF779F806B0BDE8F0810010024034
:1011B00000080140000C014010B58EB000240794D7
:1011C000089409940A940B941C2168460C94FEF729
:1011D000FBFF1E484FF0804101603F21C0E9011430
:1011E00044F61F61C0E9031480218161FFF78AFC86
:1011F00008B1FFF74EF84FF48050079007A9134845
:10120000FFF70AFD08B1FFF744F81048FFF7BBFEEF
:1012100008B1FFF73EF80B940BA90C480C94FFF7AC
:101220003DFC08B1FFF735F86020CDE900040294D9
:101230000422694605480494FFF73FFE08B1FFF712
:1012400028F80248FFF70AFE0EB010BD1800002073
:1012500010B586B0002417480094019402940394BA
:1012600004941349059401603F21C0E9011442F23E
:101270000F71C0E903148461FFF744FC08B1FFF764
:1012800008F84FF48050009069460A48FFF7C4FC04
:1012900008B1FEF7FEFF049404A906480594FFF781
:1012A000FDFB002801D0FEF7F4FF06B010BD0000E2
:1012B0000004004060000020FEE7FEE77047704732
:1012C0007047FFF7E9B830B58FB028216846FEF7C0
:1012D0007BFF14210AA8FEF777FF02250120049066
:1012E00000951020059000244FF46010CDE90840CF
:1012F00007956846FFF72CFA08B172B6FEE70F2093
:10130000CDE90A054FF48060CDE90C4002210AA81E
:101310000E94FFF761F9002801D072B6FEE70FB016
:1013200030BD70470148FFF7E6BC00001800002000
:101330000148FFF7E0BC000060000020F0B5026843
:10134000164B174C174D4FF08047984205D0B842C6
:1013500003D0A04201D0A84203D122F070064A680F
:101360003243984205D0B84203D0A04201D0A842EF
:1013700003D122F44074CA6822434C6922F08002EF
:10138000224302608A68C2620A688262984201D17E
:101390000969016301214161F0BD0000002C014099
:1013A000000400400008004010B501F01F030121B7
:1013B000046A99408C430462016A9A4011430162B5
:1013C00010BD10B5846842EA032224F47F440A4326
:1013D0002243826010BD826822F070020A4342F00C
:1013E000070181607047000030B5036A026A22F08D
:1013F000010202624268846924F073050C682C4380
:1014000023F002058B682B430A4DA8420BD123F031
:101410000805CB6822F440722B434D6923F0040386
:1014200015438A692A4342608461496841630362C3
:1014300030BD0000002C014030B5026A036A23F081
:1014400010030362436884690D6824F4E64444EAA7
:1014500005248D6822F0200242EA05120B4DA842B5
:101460000ED1CD6822F0800242EA05124D6923F4C4
:10147000406343EA85038D6922F0400243EA850315
:101480004360846149688163026230BD002C014081
:1014900030B5036A026A22F4807202624268C4694B
:1014A00023F4007324F073050C682C438D6843EA21
:1014B00005230C4DA8420ED1CD6823F4006343EA06
:1014C00005234D6922F4405242EA05128D6923F446
:1014D000806342EA05124260C4614968C1630362E5
:1014E00030BD0000002C014030B5046A026A22F4CD
:1014F000805202624268C3690D6823F4E64343EAFE
:1015000005238D6824F4005444EA0534064DA842AE
:1015100004D14D6922F4804242EA85124260C361DF
:1015200049680164046230BD002C014010B5036AB3
:10153000046A24F001040462846924F0F00444EA9B
:10154000021423F00A020A438461026210BD10B53E
:10155000036A046A24F010040462846923F0A0037F
:1015600024F4704444EA023243EA011182610162C8
:1015700010BDFEE70907090E002804DB00F1E0209A
:1015800080F80014704700F00F0000F1E02080F8B0
:10159000141D7047044B4FF4004108B1012200E0D4
:1015A00000221846FEF76DBF0008014010B5114C2F
:1015B00001212046FEF760FF08B14C2015E0022112
:1015C0002046FEF759FF08B152200EE004212046C4
:1015D000FEF752FF08B1542007E008212046FEF72D
:1015E0004BFF08B1422000E04E20BDE8104000F063
:1015F000ABB800000008014010B510210348FEF709
:101600003BFF08B1002010BD012010BD00080140C3
:101610002DE9F0472A48007800284FD1294C2A4D5F
:1016200001212078C0F1010020702846FEF724FF38
:101630006E154FF48078EF144FF4806988B12278EA
:1016400031462846FEF71DFF227841462846FEF720
:1016500018FF012239462846FEF713FF01224946AA
:1016600027E002212846FEF707FF30B122783946ED
:101670002846FEF706FF227810E004212846FEF7F0
:10168000FBFE044608212846FEF7F6FE044315D06B
:10169000012239462846FEF7F4FE01224946284633
:1016A000FEF7EFFE012231462846FEF7EAFE012250
:1016B00041462846BDE8F047FEF7E3BEBDE8F087A7
:1016C00002000020000000200008014010B50B4C73
:1016D0000122D1022046FEF7D4FE012291022046CB
:1016E000FEF7CFFE012251022046FEF7CAFE204639
:1016F0000122BDE810401102FEF7C3BE0008014000
:10170000FEF7D2FEFFF7DFFDFFF7FCFCFFF754FD0D
:10171000FFF79EFD0A48FFF753FA04210948FFF737
:1017200061FC0020FFF736FF00F066F8FFF7CEFF00
:10173000FFF76EFFFFF73AFF00F07CF8F8E70000D4
:10174000600000201800002070B5294B294C4C285F
:101750001FD0522821D0542823D0422834D04E28DC
:1017600044D1002240211D461846FEF78AFE002281
:1017700001212046FEF785FE002280214FEA050068
:10178000FEF77FFE002202212046BDE87040FEF7F2
:1017900078BE00224021184611E00122802118461F
:1017A000EEE7012280211D461846FEF76AFE002260
:1017B00002212046FEF765FE002240212846FEF762
:1017C00060FE01220121DFE7002280211D4618462C
:1017D000FEF757FE012202212046FEF752FE0122AB
:1017E00040212846FEF74DFE0022EBE770BD0000C9
:1017F00000080140000C014070B50C4C0022402153
:101800002046FEF73EFE0A4D002201212846FEF743
:1018100038FE002280212046FEF733FE2846BDE830
:10182000704000220221FEF72CBE0000000801409B
:10183000000C014010B5FFF7DFFE044901280870D5
:1018400000D00020BDE81040FFF7A4BE010000203A
:10185000010202030405060708090A0B0C0D0E0F0E
:101860001010000000000000000001020304060741
:10187000080900009418000800000020180000006B
:1018800028010008AC18000818000020F00600002D
:1018900044010008000000000000200301000000D7
:0C18A00010000000000000000024F40014
:04000005080000ED02
:00000001FF
